{
  "_format": "hh-sol-artifact-1",
  "contractName": "Greeter",
  "sourceName": "contracts/Greeter.sol",
  "abi": [
    {
      "inputs": [
        {
          "internalType": "string",
          "name": "_greeting",
          "type": "string"
        }
      ],
      "stateMutability": "nonpayable",
      "type": "constructor"
    },
    {
      "inputs": [],
      "name": "greet",
      "outputs": [
        {
          "internalType": "string",
          "name": "",
          "type": "string"
        }
      ],
      "stateMutability": "view",
      "type": "function"
    },
    {
      "inputs": [
        {
          "internalType": "string",
          "name": "_greeting",
          "type": "string"
        }
      ],
      "name": "setGreeting",
      "outputs": [],
      "stateMutability": "nonpayable",
      "type": "function"
    }
  ],
  "bytecode": "0x60806040523480156200001157600080fd5b5060405162000f6f38038062000f6f8339818101604052810190620000379190620002d5565b6200006260405180606001604052806022815260200162000f4d60229139826200007b60201b60201c565b806000908162000073919062000571565b5050620006e5565b6200011d828260405160240162000094929190620006aa565b6040516020818303038152906040527f4b5c4277000000000000000000000000000000000000000000000000000000007bffffffffffffffffffffffffffffffffffffffffffffffffffffffff19166020820180517bffffffffffffffffffffffffffffffffffffffffffffffffffffffff83818316178352505050506200012160201b60201c565b5050565b60006a636f6e736f6c652e6c6f679050600080835160208501845afa505050565b6000604051905090565b600080fd5b600080fd5b600080fd5b600080fd5b6000601f19601f8301169050919050565b7f4e487b7100000000000000000000000000000000000000000000000000000000600052604160045260246000fd5b620001ab8262000160565b810181811067ffffffffffffffff82111715620001cd57620001cc62000171565b5b80604052505050565b6000620001e262000142565b9050620001f08282620001a0565b919050565b600067ffffffffffffffff82111562000213576200021262000171565b5b6200021e8262000160565b9050602081019050919050565b60005b838110156200024b5780820151818401526020810190506200022e565b60008484015250505050565b60006200026e6200026884620001f5565b620001d6565b9050828152602081018484840111156200028d576200028c6200015b565b5b6200029a8482856200022b565b509392505050565b600082601f830112620002ba57620002b962000156565b5b8151620002cc84826020860162000257565b91505092915050565b600060208284031215620002ee57620002ed6200014c565b5b600082015167ffffffffffffffff8111156200030f576200030e62000151565b5b6200031d84828501620002a2565b91505092915050565b600081519050919050565b7f4e487b7100000000000000000000000000000000000000000000000000000000600052602260045260246000fd5b600060028204905060018216806200037957607f821691505b6020821081036200038f576200038e62000331565b5b50919050565b60008190508160005260206000209050919050565b60006020601f8301049050919050565b600082821b905092915050565b600060088302620003f97fffffffffffffffffffffffffffffffffffffffffffffffffffffffffffffffff82620003ba565b620004058683620003ba565b95508019841693508086168417925050509392505050565b6000819050919050565b6000819050919050565b6000620004526200044c62000446846200041d565b62000427565b6200041d565b9050919050565b6000819050919050565b6200046e8362000431565b620004866200047d8262000459565b848454620003c7565b825550505050565b600090565b6200049d6200048e565b620004aa81848462000463565b505050565b5b81811015620004d257620004c660008262000493565b600181019050620004b0565b5050565b601f8211156200052157620004eb8162000395565b620004f684620003aa565b8101602085101562000506578190505b6200051e6200051585620003aa565b830182620004af565b50505b505050565b600082821c905092915050565b6000620005466000198460080262000526565b1980831691505092915050565b600062000561838362000533565b9150826002028217905092915050565b6200057c8262000326565b67ffffffffffffffff81111562000598576200059762000171565b5b620005a4825462000360565b620005b1828285620004d6565b600060209050601f831160018114620005e95760008415620005d4578287015190505b620005e0858262000553565b86555062000650565b601f198416620005f98662000395565b60005b828110156200062357848901518255600182019150602085019450602081019050620005fc565b868310156200064357848901516200063f601f89168262000533565b8355505b6001600288020188555050505b505050505050565b600082825260208201905092915050565b6000620006768262000326565b62000682818562000658565b9350620006948185602086016200022b565b6200069f8162000160565b840191505092915050565b60006040820190508181036000830152620006c6818562000669565b90508181036020830152620006dc818462000669565b90509392505050565b61085880620006f56000396000f3fe608060405234801561001057600080fd5b50600436106100365760003560e01c8063a41368621461003b578063cfae321714610057575b600080fd5b610055600480360381019061005091906103e1565b610075565b005b61005f610135565b60405161006c91906104a9565b60405180910390f35b610122604051806060016040528060238152602001610800602391396000805461009e906104fa565b80601f01602080910402602001604051908101604052809291908181526020018280546100ca906104fa565b80156101175780601f106100ec57610100808354040283529160200191610117565b820191906000526020600020905b8154815290600101906020018083116100fa57829003601f168201915b5050505050836101c7565b806000908161013191906106e1565b5050565b606060008054610144906104fa565b80601f0160208091040260200160405190810160405280929190818152602001828054610170906104fa565b80156101bd5780601f10610192576101008083540402835291602001916101bd565b820191906000526020600020905b8154815290600101906020018083116101a057829003601f168201915b5050505050905090565b6102618383836040516024016101df939291906107b3565b6040516020818303038152906040527f2ced7cef000000000000000000000000000000000000000000000000000000007bffffffffffffffffffffffffffffffffffffffffffffffffffffffff19166020820180517bffffffffffffffffffffffffffffffffffffffffffffffffffffffff8381831617835250505050610266565b505050565b60006a636f6e736f6c652e6c6f679050600080835160208501845afa505050565b6000604051905090565b600080fd5b600080fd5b600080fd5b600080fd5b6000601f19601f8301169050919050565b7f4e487b7100000000000000000000000000000000000000000000000000000000600052604160045260246000fd5b6102ee826102a5565b810181811067ffffffffffffffff8211171561030d5761030c6102b6565b5b80604052505050565b6000610320610287565b905061032c82826102e5565b919050565b600067ffffffffffffffff82111561034c5761034b6102b6565b5b610355826102a5565b9050602081019050919050565b82818337600083830152505050565b600061038461037f84610331565b610316565b9050828152602081018484840111156103a05761039f6102a0565b5b6103ab848285610362565b509392505050565b600082601f8301126103c8576103c761029b565b5b81356103d8848260208601610371565b91505092915050565b6000602082840312156103f7576103f6610291565b5b600082013567ffffffffffffffff81111561041557610414610296565b5b610421848285016103b3565b91505092915050565b600081519050919050565b600082825260208201905092915050565b60005b83811015610464578082015181840152602081019050610449565b60008484015250505050565b600061047b8261042a565b6104858185610435565b9350610495818560208601610446565b61049e816102a5565b840191505092915050565b600060208201905081810360008301526104c38184610470565b905092915050565b7f4e487b7100000000000000000000000000000000000000000000000000000000600052602260045260246000fd5b6000600282049050600182168061051257607f821691505b602082108103610525576105246104cb565b5b50919050565b60008190508160005260206000209050919050565b60006020601f8301049050919050565b600082821b905092915050565b60006008830261058d7fffffffffffffffffffffffffffffffffffffffffffffffffffffffffffffffff82610550565b6105978683610550565b95508019841693508086168417925050509392505050565b6000819050919050565b6000819050919050565b60006105de6105d96105d4846105af565b6105b9565b6105af565b9050919050565b6000819050919050565b6105f8836105c3565b61060c610604826105e5565b84845461055d565b825550505050565b600090565b610621610614565b61062c8184846105ef565b505050565b5b8181101561065057610645600082610619565b600181019050610632565b5050565b601f821115610695576106668161052b565b61066f84610540565b8101602085101561067e578190505b61069261068a85610540565b830182610631565b50505b505050565b600082821c905092915050565b60006106b86000198460080261069a565b1980831691505092915050565b60006106d183836106a7565b9150826002028217905092915050565b6106ea8261042a565b67ffffffffffffffff811115610703576107026102b6565b5b61070d82546104fa565b610718828285610654565b600060209050601f83116001811461074b5760008415610739578287015190505b61074385826106c5565b8655506107ab565b601f1984166107598661052b565b60005b828110156107815784890151825560018201915060208501945060208101905061075c565b8683101561079e578489015161079a601f8916826106a7565b8355505b6001600288020188555050505b505050505050565b600060608201905081810360008301526107cd8186610470565b905081810360208301526107e18185610470565b905081810360408301526107f58184610470565b905094935050505056fe4368616e67696e67206772656574696e672066726f6d202725732720746f2027257327a2646970667358221220523a0e8af9256b24b6315cd137b4820493b38efd351972db74aa293005e7b07964736f6c634300081300334465706c6f79696e67206120477265657465722077697468206772656574696e673a",
  "linkReferences": {},
  "deployedLinkReferences": {}
}